{
  "address": "0x9fE46736679d2D9a65F0992F2272dE9f3c7fa6e0",
  "abi": [
    {
      "inputs": [
        {
          "internalType": "address",
          "name": "_token",
          "type": "address"
        },
        {
          "internalType": "uint64",
          "name": "_maxCampaingPeriod",
          "type": "uint64"
        }
      ],
      "stateMutability": "nonpayable",
      "type": "constructor"
    },
    {
      "anonymous": false,
      "inputs": [
        {
          "indexed": false,
          "internalType": "uint256",
          "name": "id",
          "type": "uint256"
        }
      ],
      "name": "Cancel",
      "type": "event"
    },
    {
      "anonymous": false,
      "inputs": [],
      "name": "Claim",
      "type": "event"
    },
    {
      "anonymous": false,
      "inputs": [],
      "name": "Launch",
      "type": "event"
    },
    {
      "anonymous": false,
      "inputs": [],
      "name": "Pledge",
      "type": "event"
    },
    {
      "anonymous": false,
      "inputs": [],
      "name": "Refund",
      "type": "event"
    },
    {
      "inputs": [],
      "name": "cancel",
      "outputs": [],
      "stateMutability": "nonpayable",
      "type": "function"
    },
    {
      "inputs": [],
      "name": "claim",
      "outputs": [],
      "stateMutability": "nonpayable",
      "type": "function"
    },
    {
      "inputs": [
        {
          "internalType": "uint256",
          "name": "",
          "type": "uint256"
        }
      ],
      "name": "idsToCampaing",
      "outputs": [
        {
          "internalType": "address",
          "name": "creator",
          "type": "address"
        },
        {
          "internalType": "uint256",
          "name": "goalAmount",
          "type": "uint256"
        },
        {
          "internalType": "uint256",
          "name": "pledgedAmount",
          "type": "uint256"
        },
        {
          "internalType": "uint64",
          "name": "startDate",
          "type": "uint64"
        },
        {
          "internalType": "uint64",
          "name": "endDate",
          "type": "uint64"
        },
        {
          "internalType": "bool",
          "name": "claimed",
          "type": "bool"
        }
      ],
      "stateMutability": "view",
      "type": "function"
    },
    {
      "inputs": [],
      "name": "launch",
      "outputs": [],
      "stateMutability": "nonpayable",
      "type": "function"
    },
    {
      "inputs": [],
      "name": "maxCampaingPeriod",
      "outputs": [
        {
          "internalType": "uint64",
          "name": "",
          "type": "uint64"
        }
      ],
      "stateMutability": "view",
      "type": "function"
    },
    {
      "inputs": [],
      "name": "refund",
      "outputs": [],
      "stateMutability": "nonpayable",
      "type": "function"
    },
    {
      "inputs": [],
      "name": "token",
      "outputs": [
        {
          "internalType": "contract IERC20",
          "name": "",
          "type": "address"
        }
      ],
      "stateMutability": "view",
      "type": "function"
    }
  ],
  "transactionHash": "0xe457caf86ac8e046b1b179c16178ada254e7754303d8d6d3d2d6cb1a91f2721f",
  "args": [
    "0xe7f1725E7734CE288F8367e1Bb143E90bb3F0512",
    1728000
  ],
  "numDeployments": 1,
  "solcInputHash": "912a53d4e0a3cc1ab835341a26a6cc4c",
  "bytecode": "0x60c060405234801561001057600080fd5b5060405161077a38038061077a833981810160405281019061003291906101e8565b600073ffffffffffffffffffffffffffffffffffffffff168273ffffffffffffffffffffffffffffffffffffffff16036100a1576040517f08c379a000000000000000000000000000000000000000000000000000000000815260040161009890610285565b60405180910390fd5b60008167ffffffffffffffff16116100ee576040517f08c379a00000000000000000000000000000000000000000000000000000000081526004016100e590610317565b60405180910390fd5b8173ffffffffffffffffffffffffffffffffffffffff1660808173ffffffffffffffffffffffffffffffffffffffff16815250508067ffffffffffffffff1660a08167ffffffffffffffff16815250505050610337565b600080fd5b600073ffffffffffffffffffffffffffffffffffffffff82169050919050565b60006101758261014a565b9050919050565b6101858161016a565b811461019057600080fd5b50565b6000815190506101a28161017c565b92915050565b600067ffffffffffffffff82169050919050565b6101c5816101a8565b81146101d057600080fd5b50565b6000815190506101e2816101bc565b92915050565b600080604083850312156101ff576101fe610145565b5b600061020d85828601610193565b925050602061021e858286016101d3565b9150509250929050565b600082825260208201905092915050565b7f455243323020616464726573732063616e6e6f74206265207a65726f00000000600082015250565b600061026f601c83610228565b915061027a82610239565b602082019050919050565b6000602082019050818103600083015261029e81610262565b9050919050565b7f506572696f642073686f756c642062652067726561746572207468616e207a6560008201527f726f000000000000000000000000000000000000000000000000000000000000602082015250565b6000610301602283610228565b915061030c826102a5565b604082019050919050565b60006020820190508181036000830152610330816102f4565b9050919050565b60805160a05161041e61035c60003960006101b6015260006101da015261041e6000f3fe608060405234801561001057600080fd5b506004361061007d5760003560e01c8063590e1ae31161005b578063590e1ae3146100cb578063ea8a1af0146100d5578063f9a3d5d9146100df578063fc0c546a146100fd5761007d565b806301339c2114610082578063045462ff1461008c5780634e71d92d146100c1575b600080fd5b61008a61011b565b005b6100a660048036038101906100a19190610237565b61011d565b6040516100b8969594939291906102f2565b60405180910390f35b6100c96101ae565b005b6100d36101b0565b005b6100dd6101b2565b005b6100e76101b4565b6040516100f49190610353565b60405180910390f35b6101056101d8565b60405161011291906103cd565b60405180910390f35b565b60016020528060005260406000206000915090508060000160009054906101000a900473ffffffffffffffffffffffffffffffffffffffff16908060010154908060020154908060030160009054906101000a900467ffffffffffffffff16908060030160089054906101000a900467ffffffffffffffff16908060030160109054906101000a900460ff16905086565b565b565b565b7f000000000000000000000000000000000000000000000000000000000000000081565b7f000000000000000000000000000000000000000000000000000000000000000081565b600080fd5b6000819050919050565b61021481610201565b811461021f57600080fd5b50565b6000813590506102318161020b565b92915050565b60006020828403121561024d5761024c6101fc565b5b600061025b84828501610222565b91505092915050565b600073ffffffffffffffffffffffffffffffffffffffff82169050919050565b600061028f82610264565b9050919050565b61029f81610284565b82525050565b6102ae81610201565b82525050565b600067ffffffffffffffff82169050919050565b6102d1816102b4565b82525050565b60008115159050919050565b6102ec816102d7565b82525050565b600060c0820190506103076000830189610296565b61031460208301886102a5565b61032160408301876102a5565b61032e60608301866102c8565b61033b60808301856102c8565b61034860a08301846102e3565b979650505050505050565b600060208201905061036860008301846102c8565b92915050565b6000819050919050565b600061039361038e61038984610264565b61036e565b610264565b9050919050565b60006103a582610378565b9050919050565b60006103b78261039a565b9050919050565b6103c7816103ac565b82525050565b60006020820190506103e260008301846103be565b9291505056fea2646970667358221220b683150ddfc015a406f9c254cd5baa85da3acc37a2175ace79e36e5d77ed105364736f6c63430008110033",
  "devdoc": {
    "author": "@loopstudio",
    "details": "Contract that enables to raise funds using ERC20 tokens. Campaings pledged amount can be claimed if",
    "events": {
      "Cancel(uint256)": {
        "details": "Explain to a developer any extra details",
        "params": {
          "id": "a parameter just like in doxygen (must be followed by parameter name)"
        }
      }
    },
    "kind": "dev",
    "methods": {
      "constructor": {
        "details": "Contract constructor",
        "params": {
          "_maxCampaingPeriod": "timestamp that represents the max period for a campaign.",
          "_token": "ERC20 token address"
        }
      }
    },
    "stateVariables": {
      "idCounter": {
        "details": "Counter for storage of Campaing ids"
      },
      "idsToCampaing": {
        "details": "Mapping that stores the campaigns by their id"
      },
      "maxCampaingPeriod": {
        "details": "timestamp that that represents the max period for a campaign. I.e 60 days"
      },
      "token": {
        "details": "Tokens must be ERC20 compliant"
      }
    },
    "title": "Crowdfunding",
    "version": 1
  },
  "userdoc": {
    "events": {
      "Cancel(uint256)": {
        "notice": "Explain to an end user what this does"
      }
    },
    "kind": "user",
    "methods": {
      "token()": {
        "notice": "Token in which funds will be raised for each campaing"
      }
    },
    "notice": "Contract for campaings fundraising",
    "version": 1
  },
  "storageLayout": {
    "storage": [
      {
        "astId": 1556,
        "contract": "contracts/Crowdfunding.sol:Crowdfunding",
        "label": "idCounter",
        "offset": 0,
        "slot": "0",
        "type": "t_struct(Counter)1441_storage"
      },
      {
        "astId": 1562,
        "contract": "contracts/Crowdfunding.sol:Crowdfunding",
        "label": "idsToCampaing",
        "offset": 0,
        "slot": "1",
        "type": "t_mapping(t_uint256,t_struct(Campaing)1548_storage)"
      }
    ],
    "types": {
      "t_address": {
        "encoding": "inplace",
        "label": "address",
        "numberOfBytes": "20"
      },
      "t_bool": {
        "encoding": "inplace",
        "label": "bool",
        "numberOfBytes": "1"
      },
      "t_mapping(t_uint256,t_struct(Campaing)1548_storage)": {
        "encoding": "mapping",
        "key": "t_uint256",
        "label": "mapping(uint256 => struct Crowdfunding.Campaing)",
        "numberOfBytes": "32",
        "value": "t_struct(Campaing)1548_storage"
      },
      "t_struct(Campaing)1548_storage": {
        "encoding": "inplace",
        "label": "struct Crowdfunding.Campaing",
        "members": [
          {
            "astId": 1537,
            "contract": "contracts/Crowdfunding.sol:Crowdfunding",
            "label": "creator",
            "offset": 0,
            "slot": "0",
            "type": "t_address"
          },
          {
            "astId": 1539,
            "contract": "contracts/Crowdfunding.sol:Crowdfunding",
            "label": "goalAmount",
            "offset": 0,
            "slot": "1",
            "type": "t_uint256"
          },
          {
            "astId": 1541,
            "contract": "contracts/Crowdfunding.sol:Crowdfunding",
            "label": "pledgedAmount",
            "offset": 0,
            "slot": "2",
            "type": "t_uint256"
          },
          {
            "astId": 1543,
            "contract": "contracts/Crowdfunding.sol:Crowdfunding",
            "label": "startDate",
            "offset": 0,
            "slot": "3",
            "type": "t_uint64"
          },
          {
            "astId": 1545,
            "contract": "contracts/Crowdfunding.sol:Crowdfunding",
            "label": "endDate",
            "offset": 8,
            "slot": "3",
            "type": "t_uint64"
          },
          {
            "astId": 1547,
            "contract": "contracts/Crowdfunding.sol:Crowdfunding",
            "label": "claimed",
            "offset": 16,
            "slot": "3",
            "type": "t_bool"
          }
        ],
        "numberOfBytes": "128"
      },
      "t_struct(Counter)1441_storage": {
        "encoding": "inplace",
        "label": "struct Counters.Counter",
        "members": [
          {
            "astId": 1440,
            "contract": "contracts/Crowdfunding.sol:Crowdfunding",
            "label": "_value",
            "offset": 0,
            "slot": "0",
            "type": "t_uint256"
          }
        ],
        "numberOfBytes": "32"
      },
      "t_uint256": {
        "encoding": "inplace",
        "label": "uint256",
        "numberOfBytes": "32"
      },
      "t_uint64": {
        "encoding": "inplace",
        "label": "uint64",
        "numberOfBytes": "8"
      }
    }
  }
}