{
  "address": "0x9fE46736679d2D9a65F0992F2272dE9f3c7fa6e0",
  "abi": [
    {
      "inputs": [
        {
          "internalType": "address",
          "name": "_token",
          "type": "address"
        },
        {
          "internalType": "uint64",
          "name": "_maxCampaignDurationInDays",
          "type": "uint64"
        }
      ],
      "stateMutability": "nonpayable",
      "type": "constructor"
    },
    {
      "anonymous": false,
      "inputs": [
        {
          "indexed": false,
          "internalType": "uint256",
          "name": "id",
          "type": "uint256"
        }
      ],
      "name": "Cancel",
      "type": "event"
    },
    {
      "anonymous": false,
      "inputs": [],
      "name": "Claim",
      "type": "event"
    },
    {
      "anonymous": false,
      "inputs": [
        {
          "indexed": false,
          "internalType": "uint256",
          "name": "id",
          "type": "uint256"
        },
        {
          "indexed": false,
          "internalType": "uint256",
          "name": "goal",
          "type": "uint256"
        },
        {
          "indexed": true,
          "internalType": "address",
          "name": "creator",
          "type": "address"
        },
        {
          "indexed": false,
          "internalType": "uint64",
          "name": "startDate",
          "type": "uint64"
        },
        {
          "indexed": false,
          "internalType": "uint64",
          "name": "endDate",
          "type": "uint64"
        }
      ],
      "name": "Launch",
      "type": "event"
    },
    {
      "anonymous": false,
      "inputs": [],
      "name": "Pledge",
      "type": "event"
    },
    {
      "anonymous": false,
      "inputs": [],
      "name": "Refund",
      "type": "event"
    },
    {
      "inputs": [],
      "name": "cancel",
      "outputs": [],
      "stateMutability": "nonpayable",
      "type": "function"
    },
    {
      "inputs": [],
      "name": "claim",
      "outputs": [],
      "stateMutability": "nonpayable",
      "type": "function"
    },
    {
      "inputs": [
        {
          "internalType": "uint256",
          "name": "",
          "type": "uint256"
        }
      ],
      "name": "idsToCampaigns",
      "outputs": [
        {
          "internalType": "address",
          "name": "creator",
          "type": "address"
        },
        {
          "internalType": "uint256",
          "name": "goalAmount",
          "type": "uint256"
        },
        {
          "internalType": "uint256",
          "name": "pledgedAmount",
          "type": "uint256"
        },
        {
          "internalType": "uint64",
          "name": "startDate",
          "type": "uint64"
        },
        {
          "internalType": "uint64",
          "name": "endDate",
          "type": "uint64"
        },
        {
          "internalType": "bool",
          "name": "claimed",
          "type": "bool"
        }
      ],
      "stateMutability": "view",
      "type": "function"
    },
    {
      "inputs": [
        {
          "internalType": "uint256",
          "name": "_goalAmount",
          "type": "uint256"
        },
        {
          "internalType": "uint64",
          "name": "_startDate",
          "type": "uint64"
        },
        {
          "internalType": "uint64",
          "name": "_endDate",
          "type": "uint64"
        }
      ],
      "name": "launch",
      "outputs": [
        {
          "internalType": "uint256",
          "name": "id",
          "type": "uint256"
        }
      ],
      "stateMutability": "nonpayable",
      "type": "function"
    },
    {
      "inputs": [],
      "name": "maxCampaignDurationInDays",
      "outputs": [
        {
          "internalType": "uint64",
          "name": "",
          "type": "uint64"
        }
      ],
      "stateMutability": "view",
      "type": "function"
    },
    {
      "inputs": [],
      "name": "refund",
      "outputs": [],
      "stateMutability": "nonpayable",
      "type": "function"
    },
    {
      "inputs": [],
      "name": "token",
      "outputs": [
        {
          "internalType": "contract IERC20",
          "name": "",
          "type": "address"
        }
      ],
      "stateMutability": "view",
      "type": "function"
    }
  ],
  "transactionHash": "0xd30be533e66cc6ea34ba92fb1f6eea8908172c40a0bad42ede6a14fbde91f31d",
  "args": [
    "0xe7f1725E7734CE288F8367e1Bb143E90bb3F0512",
    1728000
  ],
  "numDeployments": 1,
  "solcInputHash": "bccb92f4c8b02f05ca648377a411d9c2",
  "bytecode": "0x60c06040523480156200001157600080fd5b5060405162000e2a38038062000e2a833981810160405281019062000037919062000200565b600073ffffffffffffffffffffffffffffffffffffffff168273ffffffffffffffffffffffffffffffffffffffff1603620000a9576040517f08c379a0000000000000000000000000000000000000000000000000000000008152600401620000a090620002a8565b60405180910390fd5b60008167ffffffffffffffff1611620000f9576040517f08c379a0000000000000000000000000000000000000000000000000000000008152600401620000f09062000340565b60405180910390fd5b8173ffffffffffffffffffffffffffffffffffffffff1660808173ffffffffffffffffffffffffffffffffffffffff16815250508067ffffffffffffffff1660a08167ffffffffffffffff1681525050505062000362565b600080fd5b600073ffffffffffffffffffffffffffffffffffffffff82169050919050565b6000620001838262000156565b9050919050565b620001958162000176565b8114620001a157600080fd5b50565b600081519050620001b5816200018a565b92915050565b600067ffffffffffffffff82169050919050565b620001da81620001bb565b8114620001e657600080fd5b50565b600081519050620001fa81620001cf565b92915050565b600080604083850312156200021a576200021962000151565b5b60006200022a85828601620001a4565b92505060206200023d85828601620001e9565b9150509250929050565b600082825260208201905092915050565b7f455243323020616464726573732063616e6e6f74206265207a65726f00000000600082015250565b600062000290601c8362000247565b91506200029d8262000258565b602082019050919050565b60006020820190508181036000830152620002c38162000281565b9050919050565b7f4475726174696f6e206d7573742062652067726561746572207468616e207a6560008201527f726f000000000000000000000000000000000000000000000000000000000000602082015250565b60006200032860228362000247565b91506200033582620002ca565b604082019050919050565b600060208201905081810360008301526200035b8162000319565b9050919050565b60805160a051610a9b6200038f6000396000818161022e0152610502015260006105280152610a9b6000f3fe608060405234801561001057600080fd5b506004361061007d5760003560e01c8063620480311161005b57806362048031146100c65780639dc809e1146100fb578063ea8a1af014610119578063fc0c546a146101235761007d565b80634e71d92d14610082578063590e1ae31461008c5780635918245a14610096575b600080fd5b61008a610141565b005b610094610143565b005b6100b060048036038101906100ab91906105e9565b610145565b6040516100bd919061064b565b60405180910390f35b6100e060048036038101906100db9190610666565b61046f565b6040516100f2969594939291906106fe565b60405180910390f35b610103610500565b604051610110919061075f565b60405180910390f35b610121610524565b005b61012b610526565b60405161013891906107d9565b60405180910390f35b565b565b6000808411610189576040517f08c379a000000000000000000000000000000000000000000000000000000000815260040161018090610851565b60405180910390fd5b428367ffffffffffffffff1610156101d6576040517f08c379a00000000000000000000000000000000000000000000000000000000081526004016101cd906108bd565b60405180910390fd5b8267ffffffffffffffff168267ffffffffffffffff161161022c576040517f08c379a000000000000000000000000000000000000000000000000000000000815260040161022390610929565b60405180910390fd5b7f000000000000000000000000000000000000000000000000000000000000000067ffffffffffffffff1683836102639190610978565b67ffffffffffffffff1611156102ae576040517f08c379a00000000000000000000000000000000000000000000000000000000081526004016102a590610a00565b60405180910390fd5b6102b8600061054a565b60006102c46000610560565b90506040518060c001604052803373ffffffffffffffffffffffffffffffffffffffff168152602001868152602001600081526020018567ffffffffffffffff1681526020018467ffffffffffffffff168152602001600015158152506001600083815260200190815260200160002060008201518160000160006101000a81548173ffffffffffffffffffffffffffffffffffffffff021916908373ffffffffffffffffffffffffffffffffffffffff160217905550602082015181600101556040820151816002015560608201518160030160006101000a81548167ffffffffffffffff021916908367ffffffffffffffff16021790555060808201518160030160086101000a81548167ffffffffffffffff021916908367ffffffffffffffff16021790555060a08201518160030160106101000a81548160ff0219169083151502179055509050503373ffffffffffffffffffffffffffffffffffffffff167fbc4780dc990db2cd2aeac6bb493759184a77466e5e4478b010d230e98c76553e8287878760405161045c9493929190610a20565b60405180910390a2809150509392505050565b60016020528060005260406000206000915090508060000160009054906101000a900473ffffffffffffffffffffffffffffffffffffffff16908060010154908060020154908060030160009054906101000a900467ffffffffffffffff16908060030160089054906101000a900467ffffffffffffffff16908060030160109054906101000a900460ff16905086565b7f000000000000000000000000000000000000000000000000000000000000000081565b565b7f000000000000000000000000000000000000000000000000000000000000000081565b6001816000016000828254019250508190555050565b600081600001549050919050565b600080fd5b6000819050919050565b61058681610573565b811461059157600080fd5b50565b6000813590506105a38161057d565b92915050565b600067ffffffffffffffff82169050919050565b6105c6816105a9565b81146105d157600080fd5b50565b6000813590506105e3816105bd565b92915050565b6000806000606084860312156106025761060161056e565b5b600061061086828701610594565b9350506020610621868287016105d4565b9250506040610632868287016105d4565b9150509250925092565b61064581610573565b82525050565b6000602082019050610660600083018461063c565b92915050565b60006020828403121561067c5761067b61056e565b5b600061068a84828501610594565b91505092915050565b600073ffffffffffffffffffffffffffffffffffffffff82169050919050565b60006106be82610693565b9050919050565b6106ce816106b3565b82525050565b6106dd816105a9565b82525050565b60008115159050919050565b6106f8816106e3565b82525050565b600060c08201905061071360008301896106c5565b610720602083018861063c565b61072d604083018761063c565b61073a60608301866106d4565b61074760808301856106d4565b61075460a08301846106ef565b979650505050505050565b600060208201905061077460008301846106d4565b92915050565b6000819050919050565b600061079f61079a61079584610693565b61077a565b610693565b9050919050565b60006107b182610784565b9050919050565b60006107c3826107a6565b9050919050565b6107d3816107b8565b82525050565b60006020820190506107ee60008301846107ca565b92915050565b600082825260208201905092915050565b7f476f616c206d7573742062652067742030000000000000000000000000000000600082015250565b600061083b6011836107f4565b915061084682610805565b602082019050919050565b6000602082019050818103600083015261086a8161082e565b9050919050565b7f5374617274206d75737420626520677465206e6f770000000000000000000000600082015250565b60006108a76015836107f4565b91506108b282610871565b602082019050919050565b600060208201905081810360008301526108d68161089a565b9050919050565b7f456e642064617465206d75737420626520677420737461727420646174650000600082015250565b6000610913601e836107f4565b915061091e826108dd565b602082019050919050565b6000602082019050818103600083015261094281610906565b9050919050565b7f4e487b7100000000000000000000000000000000000000000000000000000000600052601160045260246000fd5b6000610983826105a9565b915061098e836105a9565b9250828203905067ffffffffffffffff8111156109ae576109ad610949565b5b92915050565b7f4475726174696f6e2065786365656473206d6178696d756d0000000000000000600082015250565b60006109ea6018836107f4565b91506109f5826109b4565b602082019050919050565b60006020820190508181036000830152610a19816109dd565b9050919050565b6000608082019050610a35600083018761063c565b610a42602083018661063c565b610a4f60408301856106d4565b610a5c60608301846106d4565b9594505050505056fea2646970667358221220c39bb84a8625291f93ed5777edefbb536a220022e6f7e7cffc4af0ba32872e7e64736f6c63430008110033",
  "devdoc": {
    "author": "@loopstudio",
    "details": "Contract that enables to raise funds using ERC20 tokens. campaigns pledged amount can be claimed if",
    "events": {
      "Launch(uint256,uint256,address,uint64,uint64)": {
        "details": "Event emited when Campaign launch succeeds"
      }
    },
    "kind": "dev",
    "methods": {
      "constructor": {
        "details": "Contract constructor",
        "params": {
          "_maxCampaignDurationInDays": "timestamp that represents the max duration for a campaign.",
          "_token": "ERC20 token address"
        }
      }
    },
    "stateVariables": {
      "idCounter": {
        "details": "Counter for storage of campaign ids"
      },
      "idsToCampaigns": {
        "details": "Mapping that stores the campaigns by their id"
      },
      "maxCampaignDurationInDays": {
        "details": "timestamp = that represents the max duration for a campaign. I.e 60 days"
      },
      "token": {
        "details": "Tokens must be ERC20 compliant"
      }
    },
    "title": "Crowdfunding",
    "version": 1
  },
  "userdoc": {
    "kind": "user",
    "methods": {
      "token()": {
        "notice": "Token in which funds will be raised for each campaign"
      }
    },
    "notice": "Contract for campaigns fundraising",
    "version": 1
  },
  "storageLayout": {
    "storage": [
      {
        "astId": 820,
        "contract": "contracts/Crowdfunding.sol:Crowdfunding",
        "label": "idCounter",
        "offset": 0,
        "slot": "0",
        "type": "t_struct(Counter)695_storage"
      },
      {
        "astId": 826,
        "contract": "contracts/Crowdfunding.sol:Crowdfunding",
        "label": "idsToCampaigns",
        "offset": 0,
        "slot": "1",
        "type": "t_mapping(t_uint256,t_struct(Campaign)812_storage)"
      }
    ],
    "types": {
      "t_address": {
        "encoding": "inplace",
        "label": "address",
        "numberOfBytes": "20"
      },
      "t_bool": {
        "encoding": "inplace",
        "label": "bool",
        "numberOfBytes": "1"
      },
      "t_mapping(t_uint256,t_struct(Campaign)812_storage)": {
        "encoding": "mapping",
        "key": "t_uint256",
        "label": "mapping(uint256 => struct Crowdfunding.Campaign)",
        "numberOfBytes": "32",
        "value": "t_struct(Campaign)812_storage"
      },
      "t_struct(Campaign)812_storage": {
        "encoding": "inplace",
        "label": "struct Crowdfunding.Campaign",
        "members": [
          {
            "astId": 801,
            "contract": "contracts/Crowdfunding.sol:Crowdfunding",
            "label": "creator",
            "offset": 0,
            "slot": "0",
            "type": "t_address"
          },
          {
            "astId": 803,
            "contract": "contracts/Crowdfunding.sol:Crowdfunding",
            "label": "goalAmount",
            "offset": 0,
            "slot": "1",
            "type": "t_uint256"
          },
          {
            "astId": 805,
            "contract": "contracts/Crowdfunding.sol:Crowdfunding",
            "label": "pledgedAmount",
            "offset": 0,
            "slot": "2",
            "type": "t_uint256"
          },
          {
            "astId": 807,
            "contract": "contracts/Crowdfunding.sol:Crowdfunding",
            "label": "startDate",
            "offset": 0,
            "slot": "3",
            "type": "t_uint64"
          },
          {
            "astId": 809,
            "contract": "contracts/Crowdfunding.sol:Crowdfunding",
            "label": "endDate",
            "offset": 8,
            "slot": "3",
            "type": "t_uint64"
          },
          {
            "astId": 811,
            "contract": "contracts/Crowdfunding.sol:Crowdfunding",
            "label": "claimed",
            "offset": 16,
            "slot": "3",
            "type": "t_bool"
          }
        ],
        "numberOfBytes": "128"
      },
      "t_struct(Counter)695_storage": {
        "encoding": "inplace",
        "label": "struct Counters.Counter",
        "members": [
          {
            "astId": 694,
            "contract": "contracts/Crowdfunding.sol:Crowdfunding",
            "label": "_value",
            "offset": 0,
            "slot": "0",
            "type": "t_uint256"
          }
        ],
        "numberOfBytes": "32"
      },
      "t_uint256": {
        "encoding": "inplace",
        "label": "uint256",
        "numberOfBytes": "32"
      },
      "t_uint64": {
        "encoding": "inplace",
        "label": "uint64",
        "numberOfBytes": "8"
      }
    }
  }
}