{
  "address": "0xe7f1725E7734CE288F8367e1Bb143E90bb3F0512",
  "abi": [
    {
      "inputs": [
        {
          "internalType": "address",
          "name": "_token",
          "type": "address"
        },
        {
          "internalType": "uint64",
          "name": "_maxCampaignDurationInDays",
          "type": "uint64"
        }
      ],
      "stateMutability": "nonpayable",
      "type": "constructor"
    },
    {
      "anonymous": false,
      "inputs": [
        {
          "indexed": false,
          "internalType": "uint256",
          "name": "id",
          "type": "uint256"
        }
      ],
      "name": "Cancel",
      "type": "event"
    },
    {
      "anonymous": false,
      "inputs": [],
      "name": "Claim",
      "type": "event"
    },
    {
      "anonymous": false,
      "inputs": [
        {
          "indexed": false,
          "internalType": "uint256",
          "name": "id",
          "type": "uint256"
        },
        {
          "indexed": false,
          "internalType": "uint256",
          "name": "goal",
          "type": "uint256"
        },
        {
          "indexed": true,
          "internalType": "address",
          "name": "creator",
          "type": "address"
        },
        {
          "indexed": false,
          "internalType": "uint64",
          "name": "startDate",
          "type": "uint64"
        },
        {
          "indexed": false,
          "internalType": "uint64",
          "name": "endDate",
          "type": "uint64"
        }
      ],
      "name": "Launch",
      "type": "event"
    },
    {
      "anonymous": false,
      "inputs": [
        {
          "indexed": false,
          "internalType": "uint256",
          "name": "id",
          "type": "uint256"
        },
        {
          "indexed": true,
          "internalType": "address",
          "name": "pledger",
          "type": "address"
        },
        {
          "indexed": false,
          "internalType": "uint256",
          "name": "amount",
          "type": "uint256"
        }
      ],
      "name": "Pledge",
      "type": "event"
    },
    {
      "anonymous": false,
      "inputs": [],
      "name": "Refund",
      "type": "event"
    },
    {
      "anonymous": false,
      "inputs": [
        {
          "indexed": false,
          "internalType": "uint256",
          "name": "id",
          "type": "uint256"
        },
        {
          "indexed": true,
          "internalType": "address",
          "name": "pledger",
          "type": "address"
        },
        {
          "indexed": false,
          "internalType": "uint256",
          "name": "amount",
          "type": "uint256"
        }
      ],
      "name": "Unpledge",
      "type": "event"
    },
    {
      "inputs": [
        {
          "internalType": "uint256",
          "name": "_campaignId",
          "type": "uint256"
        }
      ],
      "name": "cancel",
      "outputs": [],
      "stateMutability": "nonpayable",
      "type": "function"
    },
    {
      "inputs": [],
      "name": "claim",
      "outputs": [],
      "stateMutability": "nonpayable",
      "type": "function"
    },
    {
      "inputs": [
        {
          "internalType": "uint256",
          "name": "",
          "type": "uint256"
        }
      ],
      "name": "idsToCampaigns",
      "outputs": [
        {
          "internalType": "address",
          "name": "creator",
          "type": "address"
        },
        {
          "internalType": "uint256",
          "name": "goalAmount",
          "type": "uint256"
        },
        {
          "internalType": "uint256",
          "name": "pledgedAmount",
          "type": "uint256"
        },
        {
          "internalType": "uint64",
          "name": "startDate",
          "type": "uint64"
        },
        {
          "internalType": "uint64",
          "name": "endDate",
          "type": "uint64"
        },
        {
          "internalType": "enum Crowdfunding.CampaignStatus",
          "name": "status",
          "type": "uint8"
        }
      ],
      "stateMutability": "view",
      "type": "function"
    },
    {
      "inputs": [
        {
          "internalType": "uint256",
          "name": "",
          "type": "uint256"
        },
        {
          "internalType": "address",
          "name": "",
          "type": "address"
        }
      ],
      "name": "idsToPledgedAmountByAddress",
      "outputs": [
        {
          "internalType": "uint256",
          "name": "",
          "type": "uint256"
        }
      ],
      "stateMutability": "view",
      "type": "function"
    },
    {
      "inputs": [
        {
          "internalType": "uint256",
          "name": "_goalAmount",
          "type": "uint256"
        },
        {
          "internalType": "uint64",
          "name": "_startDate",
          "type": "uint64"
        },
        {
          "internalType": "uint64",
          "name": "_endDate",
          "type": "uint64"
        }
      ],
      "name": "launch",
      "outputs": [],
      "stateMutability": "nonpayable",
      "type": "function"
    },
    {
      "inputs": [],
      "name": "maxCampaignDurationInDays",
      "outputs": [
        {
          "internalType": "uint64",
          "name": "",
          "type": "uint64"
        }
      ],
      "stateMutability": "view",
      "type": "function"
    },
    {
      "inputs": [
        {
          "internalType": "uint256",
          "name": "_campaignId",
          "type": "uint256"
        },
        {
          "internalType": "uint256",
          "name": "_amount",
          "type": "uint256"
        }
      ],
      "name": "pledge",
      "outputs": [],
      "stateMutability": "nonpayable",
      "type": "function"
    },
    {
      "inputs": [],
      "name": "refund",
      "outputs": [],
      "stateMutability": "nonpayable",
      "type": "function"
    },
    {
      "inputs": [],
      "name": "tokenAddress",
      "outputs": [
        {
          "internalType": "address",
          "name": "",
          "type": "address"
        }
      ],
      "stateMutability": "view",
      "type": "function"
    },
    {
      "inputs": [
        {
          "internalType": "uint256",
          "name": "_campaignId",
          "type": "uint256"
        },
        {
          "internalType": "uint256",
          "name": "_amount",
          "type": "uint256"
        }
      ],
      "name": "unpledge",
      "outputs": [],
      "stateMutability": "nonpayable",
      "type": "function"
    }
  ],
  "transactionHash": "0x335e0e149bfd6104639b47485d649bb284e41f912cd5d946b99a0372b7d75e54",
  "args": [
    "0x5FbDB2315678afecb367f032d93F642f64180aa3",
    1728000
  ],
  "numDeployments": 1,
  "solcInputHash": "c6b928e44135364bdd06ac31d96dbbb6",
  "bytecode": "0x60c06040523480156200001157600080fd5b506040516200226938038062002269833981810160405281019062000037919062000200565b600073ffffffffffffffffffffffffffffffffffffffff168273ffffffffffffffffffffffffffffffffffffffff1603620000a9576040517f08c379a0000000000000000000000000000000000000000000000000000000008152600401620000a090620002a8565b60405180910390fd5b60008167ffffffffffffffff1611620000f9576040517f08c379a0000000000000000000000000000000000000000000000000000000008152600401620000f0906200031a565b60405180910390fd5b8173ffffffffffffffffffffffffffffffffffffffff1660808173ffffffffffffffffffffffffffffffffffffffff16815250508067ffffffffffffffff1660a08167ffffffffffffffff168152505050506200033c565b600080fd5b600073ffffffffffffffffffffffffffffffffffffffff82169050919050565b6000620001838262000156565b9050919050565b620001958162000176565b8114620001a157600080fd5b50565b600081519050620001b5816200018a565b92915050565b600067ffffffffffffffff82169050919050565b620001da81620001bb565b8114620001e657600080fd5b50565b600081519050620001fa81620001cf565b92915050565b600080604083850312156200021a576200021962000151565b5b60006200022a85828601620001a4565b92505060206200023d85828601620001e9565b9150509250929050565b600082825260208201905092915050565b7f455243323020616464726573732063616e6e6f74206265207a65726f00000000600082015250565b600062000290601c8362000247565b91506200029d8262000258565b602082019050919050565b60006020820190508181036000830152620002c38162000281565b9050919050565b7f4475726174696f6e206d757374206265206774207468616e207a65726f000000600082015250565b600062000302601d8362000247565b91506200030f82620002ca565b602082019050919050565b600060208201905081810360008301526200033581620002f3565b9050919050565b60805160a051611ef2620003776000396000818161047d0152610a9c0152600081816109dc01528181610a780152610d760152611ef26000f3fe608060405234801561001057600080fd5b506004361061009e5760003560e01c80636204803111610066578063620480311461011f578063711853ab146101545780639d76ea58146101705780639dc809e11461018e578063fde327be146101ac5761009e565b806340e58ee5146100a35780634e71d92d146100bf5780634e728486146100c9578063590e1ae3146100f95780635918245a14610103575b600080fd5b6100bd60048036038101906100b89190611212565b6101c8565b005b6100c761036c565b005b6100e360048036038101906100de919061129d565b61036e565b6040516100f091906112ec565b60405180910390f35b610101610393565b005b61011d60048036038101906101189190611347565b610395565b005b61013960048036038101906101349190611212565b6106d9565b60405161014b9695949392919061142f565b60405180910390f35b61016e60048036038101906101699190611490565b61076a565b005b610178610a76565b60405161018591906114d0565b60405180910390f35b610196610a9a565b6040516101a391906114eb565b60405180910390f35b6101c660048036038101906101c19190611490565b610abe565b005b6000600160008381526020019081526020016000209050600073ffffffffffffffffffffffffffffffffffffffff168160000160009054906101000a900473ffffffffffffffffffffffffffffffffffffffff1673ffffffffffffffffffffffffffffffffffffffff1603610272576040517f08c379a000000000000000000000000000000000000000000000000000000000815260040161026990611563565b60405180910390fd5b3373ffffffffffffffffffffffffffffffffffffffff168160000160009054906101000a900473ffffffffffffffffffffffffffffffffffffffff1673ffffffffffffffffffffffffffffffffffffffff1614610304576040517f08c379a00000000000000000000000000000000000000000000000000000000081526004016102fb906115cf565b60405180910390fd5b60018160030160106101000a81548160ff0219169083600281111561032c5761032b6113b8565b5b02179055507f8bf30e7ff26833413be5f69e1d373744864d600b664204b4a2f9844a8eedb9ed8260405161036091906112ec565b60405180910390a15050565b565b6002602052816000526040600020602052806000526040600020600091509150505481565b565b600083116103d8576040517f08c379a00000000000000000000000000000000000000000000000000000000081526004016103cf9061163b565b60405180910390fd5b428267ffffffffffffffff161015610425576040517f08c379a000000000000000000000000000000000000000000000000000000000815260040161041c906116a7565b60405180910390fd5b8167ffffffffffffffff168167ffffffffffffffff161161047b576040517f08c379a000000000000000000000000000000000000000000000000000000000815260040161047290611713565b60405180910390fd5b7f000000000000000000000000000000000000000000000000000000000000000067ffffffffffffffff1682826104b29190611762565b67ffffffffffffffff1611156104fd576040517f08c379a00000000000000000000000000000000000000000000000000000000081526004016104f4906117ea565b60405180910390fd5b6105076000610e10565b60006105136000610e26565b90506040518060c001604052803373ffffffffffffffffffffffffffffffffffffffff168152602001858152602001600081526020018467ffffffffffffffff1681526020018367ffffffffffffffff1681526020016000600281111561057d5761057c6113b8565b5b8152506001600083815260200190815260200160002060008201518160000160006101000a81548173ffffffffffffffffffffffffffffffffffffffff021916908373ffffffffffffffffffffffffffffffffffffffff160217905550602082015181600101556040820151816002015560608201518160030160006101000a81548167ffffffffffffffff021916908367ffffffffffffffff16021790555060808201518160030160086101000a81548167ffffffffffffffff021916908367ffffffffffffffff16021790555060a08201518160030160106101000a81548160ff02191690836002811115610677576106766113b8565b5b02179055509050503373ffffffffffffffffffffffffffffffffffffffff167fbc4780dc990db2cd2aeac6bb493759184a77466e5e4478b010d230e98c76553e828686866040516106cb949392919061180a565b60405180910390a250505050565b60016020528060005260406000206000915090508060000160009054906101000a900473ffffffffffffffffffffffffffffffffffffffff16908060010154908060020154908060030160009054906101000a900467ffffffffffffffff16908060030160089054906101000a900467ffffffffffffffff16908060030160109054906101000a900460ff16905086565b600081116107ad576040517f08c379a00000000000000000000000000000000000000000000000000000000081526004016107a49061189b565b60405180910390fd5b6000600160008481526020019081526020016000209050600073ffffffffffffffffffffffffffffffffffffffff168160000160009054906101000a900473ffffffffffffffffffffffffffffffffffffffff1673ffffffffffffffffffffffffffffffffffffffff1603610857576040517f08c379a000000000000000000000000000000000000000000000000000000000815260040161084e90611563565b60405180910390fd5b428160030160089054906101000a900467ffffffffffffffff1667ffffffffffffffff16116108bb576040517f08c379a00000000000000000000000000000000000000000000000000000000081526004016108b290611907565b60405180910390fd5b60006002600085815260200190815260200160002060003373ffffffffffffffffffffffffffffffffffffffff1673ffffffffffffffffffffffffffffffffffffffff16815260200190815260200160002054905082811015610953576040517f08c379a000000000000000000000000000000000000000000000000000000000815260040161094a90611973565b60405180910390fd5b828260020160008282546109679190611993565b92505081905550826002600086815260200190815260200160002060003373ffffffffffffffffffffffffffffffffffffffff1673ffffffffffffffffffffffffffffffffffffffff16815260200190815260200160002060008282546109ce9190611993565b92505081905550610a2033847f000000000000000000000000000000000000000000000000000000000000000073ffffffffffffffffffffffffffffffffffffffff16610e349092919063ffffffff16565b3373ffffffffffffffffffffffffffffffffffffffff167f2eeeab891b26a214d1b25749f88a406bdea852bd8c9bfda977e0ef8114c180ba8585604051610a689291906119c7565b60405180910390a250505050565b7f000000000000000000000000000000000000000000000000000000000000000081565b7f000000000000000000000000000000000000000000000000000000000000000081565b60008111610b01576040517f08c379a0000000000000000000000000000000000000000000000000000000008152600401610af890611a3c565b60405180910390fd5b6000600160008481526020019081526020016000209050600073ffffffffffffffffffffffffffffffffffffffff168160000160009054906101000a900473ffffffffffffffffffffffffffffffffffffffff1673ffffffffffffffffffffffffffffffffffffffff1603610bab576040517f08c379a0000000000000000000000000000000000000000000000000000000008152600401610ba290611563565b60405180910390fd5b60006002811115610bbf57610bbe6113b8565b5b8160030160109054906101000a900460ff166002811115610be357610be26113b8565b5b14610c23576040517f08c379a0000000000000000000000000000000000000000000000000000000008152600401610c1a90611aa8565b60405180910390fd5b428160030160009054906101000a900467ffffffffffffffff1667ffffffffffffffff161115610c88576040517f08c379a0000000000000000000000000000000000000000000000000000000008152600401610c7f90611b14565b60405180910390fd5b428160030160089054906101000a900467ffffffffffffffff1667ffffffffffffffff1611610cec576040517f08c379a0000000000000000000000000000000000000000000000000000000008152600401610ce390611907565b60405180910390fd5b81816002016000828254610d009190611b34565b92505081905550816002600085815260200190815260200160002060003373ffffffffffffffffffffffffffffffffffffffff1673ffffffffffffffffffffffffffffffffffffffff1681526020019081526020016000206000828254610d679190611b34565b92505081905550610dbb3330847f000000000000000000000000000000000000000000000000000000000000000073ffffffffffffffffffffffffffffffffffffffff16610eba909392919063ffffffff16565b3373ffffffffffffffffffffffffffffffffffffffff167f06bdb975df800a73232998e71ed585d536222f1dfeaa622d7f62a23ada686c828484604051610e039291906119c7565b60405180910390a2505050565b6001816000016000828254019250508190555050565b600081600001549050919050565b610eb58363a9059cbb60e01b8484604051602401610e53929190611b68565b604051602081830303815290604052907bffffffffffffffffffffffffffffffffffffffffffffffffffffffff19166020820180517bffffffffffffffffffffffffffffffffffffffffffffffffffffffff8381831617835250505050610f43565b505050565b610f3d846323b872dd60e01b858585604051602401610edb93929190611b91565b604051602081830303815290604052907bffffffffffffffffffffffffffffffffffffffffffffffffffffffff19166020820180517bffffffffffffffffffffffffffffffffffffffffffffffffffffffff8381831617835250505050610f43565b50505050565b6000610fa5826040518060400160405280602081526020017f5361666545524332303a206c6f772d6c6576656c2063616c6c206661696c65648152508573ffffffffffffffffffffffffffffffffffffffff1661100a9092919063ffffffff16565b90506000815111156110055780806020019051810190610fc59190611c00565b611004576040517f08c379a0000000000000000000000000000000000000000000000000000000008152600401610ffb90611c9f565b60405180910390fd5b5b505050565b60606110198484600085611022565b90509392505050565b606082471015611067576040517f08c379a000000000000000000000000000000000000000000000000000000000815260040161105e90611d31565b60405180910390fd5b6000808673ffffffffffffffffffffffffffffffffffffffff1685876040516110909190611dc2565b60006040518083038185875af1925050503d80600081146110cd576040519150601f19603f3d011682016040523d82523d6000602084013e6110d2565b606091505b50915091506110e3878383876110ef565b92505050949350505050565b606083156111515760008351036111495761110985611164565b611148576040517f08c379a000000000000000000000000000000000000000000000000000000000815260040161113f90611e25565b60405180910390fd5b5b82905061115c565b61115b8383611187565b5b949350505050565b6000808273ffffffffffffffffffffffffffffffffffffffff163b119050919050565b60008251111561119a5781518083602001fd5b806040517f08c379a00000000000000000000000000000000000000000000000000000000081526004016111ce9190611e9a565b60405180910390fd5b600080fd5b6000819050919050565b6111ef816111dc565b81146111fa57600080fd5b50565b60008135905061120c816111e6565b92915050565b600060208284031215611228576112276111d7565b5b6000611236848285016111fd565b91505092915050565b600073ffffffffffffffffffffffffffffffffffffffff82169050919050565b600061126a8261123f565b9050919050565b61127a8161125f565b811461128557600080fd5b50565b60008135905061129781611271565b92915050565b600080604083850312156112b4576112b36111d7565b5b60006112c2858286016111fd565b92505060206112d385828601611288565b9150509250929050565b6112e6816111dc565b82525050565b600060208201905061130160008301846112dd565b92915050565b600067ffffffffffffffff82169050919050565b61132481611307565b811461132f57600080fd5b50565b6000813590506113418161131b565b92915050565b6000806000606084860312156113605761135f6111d7565b5b600061136e868287016111fd565b935050602061137f86828701611332565b925050604061139086828701611332565b9150509250925092565b6113a38161125f565b82525050565b6113b281611307565b82525050565b7f4e487b7100000000000000000000000000000000000000000000000000000000600052602160045260246000fd5b600381106113f8576113f76113b8565b5b50565b6000819050611409826113e7565b919050565b6000611419826113fb565b9050919050565b6114298161140e565b82525050565b600060c082019050611444600083018961139a565b61145160208301886112dd565b61145e60408301876112dd565b61146b60608301866113a9565b61147860808301856113a9565b61148560a0830184611420565b979650505050505050565b600080604083850312156114a7576114a66111d7565b5b60006114b5858286016111fd565b92505060206114c6858286016111fd565b9150509250929050565b60006020820190506114e5600083018461139a565b92915050565b600060208201905061150060008301846113a9565b92915050565b600082825260208201905092915050565b7f4e6f742065786973747300000000000000000000000000000000000000000000600082015250565b600061154d600a83611506565b915061155882611517565b602082019050919050565b6000602082019050818103600083015261157c81611540565b9050919050565b7f4e6f742063726561746f72000000000000000000000000000000000000000000600082015250565b60006115b9600b83611506565b91506115c482611583565b602082019050919050565b600060208201905081810360008301526115e8816115ac565b9050919050565b7f476f616c206d7573742062652067742030000000000000000000000000000000600082015250565b6000611625601183611506565b9150611630826115ef565b602082019050919050565b6000602082019050818103600083015261165481611618565b9050919050565b7f5374617274206d75737420626520677465206e6f770000000000000000000000600082015250565b6000611691601583611506565b915061169c8261165b565b602082019050919050565b600060208201905081810360008301526116c081611684565b9050919050565b7f456e642064617465206d75737420626520677420737461727420646174650000600082015250565b60006116fd601e83611506565b9150611708826116c7565b602082019050919050565b6000602082019050818103600083015261172c816116f0565b9050919050565b7f4e487b7100000000000000000000000000000000000000000000000000000000600052601160045260246000fd5b600061176d82611307565b915061177883611307565b9250828203905067ffffffffffffffff81111561179857611797611733565b5b92915050565b7f4475726174696f6e2065786365656473206d6178696d756d0000000000000000600082015250565b60006117d4601883611506565b91506117df8261179e565b602082019050919050565b60006020820190508181036000830152611803816117c7565b9050919050565b600060808201905061181f60008301876112dd565b61182c60208301866112dd565b61183960408301856113a9565b61184660608301846113a9565b95945050505050565b7f556e706c6564676520616d6f756e74206d757374206265206774203000000000600082015250565b6000611885601c83611506565b91506118908261184f565b602082019050919050565b600060208201905081810360008301526118b481611878565b9050919050565b7f456e646564000000000000000000000000000000000000000000000000000000600082015250565b60006118f1600583611506565b91506118fc826118bb565b602082019050919050565b60006020820190508181036000830152611920816118e4565b9050919050565b7f496e73756666696369656e742062616c616e636520746f20756e706c65646765600082015250565b600061195d602083611506565b915061196882611927565b602082019050919050565b6000602082019050818103600083015261198c81611950565b9050919050565b600061199e826111dc565b91506119a9836111dc565b92508282039050818111156119c1576119c0611733565b5b92915050565b60006040820190506119dc60008301856112dd565b6119e960208301846112dd565b9392505050565b7f506c6564676520616d6f756e74206d7573742062652067742030000000000000600082015250565b6000611a26601a83611506565b9150611a31826119f0565b602082019050919050565b60006020820190508181036000830152611a5581611a19565b9050919050565b7f496e76616c696420737461747573000000000000000000000000000000000000600082015250565b6000611a92600e83611506565b9150611a9d82611a5c565b602082019050919050565b60006020820190508181036000830152611ac181611a85565b9050919050565b7f4e6f742073746172746564000000000000000000000000000000000000000000600082015250565b6000611afe600b83611506565b9150611b0982611ac8565b602082019050919050565b60006020820190508181036000830152611b2d81611af1565b9050919050565b6000611b3f826111dc565b9150611b4a836111dc565b9250828201905080821115611b6257611b61611733565b5b92915050565b6000604082019050611b7d600083018561139a565b611b8a60208301846112dd565b9392505050565b6000606082019050611ba6600083018661139a565b611bb3602083018561139a565b611bc060408301846112dd565b949350505050565b60008115159050919050565b611bdd81611bc8565b8114611be857600080fd5b50565b600081519050611bfa81611bd4565b92915050565b600060208284031215611c1657611c156111d7565b5b6000611c2484828501611beb565b91505092915050565b7f5361666545524332303a204552433230206f7065726174696f6e20646964206e60008201527f6f74207375636365656400000000000000000000000000000000000000000000602082015250565b6000611c89602a83611506565b9150611c9482611c2d565b604082019050919050565b60006020820190508181036000830152611cb881611c7c565b9050919050565b7f416464726573733a20696e73756666696369656e742062616c616e636520666f60008201527f722063616c6c0000000000000000000000000000000000000000000000000000602082015250565b6000611d1b602683611506565b9150611d2682611cbf565b604082019050919050565b60006020820190508181036000830152611d4a81611d0e565b9050919050565b600081519050919050565b600081905092915050565b60005b83811015611d85578082015181840152602081019050611d6a565b60008484015250505050565b6000611d9c82611d51565b611da68185611d5c565b9350611db6818560208601611d67565b80840191505092915050565b6000611dce8284611d91565b915081905092915050565b7f416464726573733a2063616c6c20746f206e6f6e2d636f6e7472616374000000600082015250565b6000611e0f601d83611506565b9150611e1a82611dd9565b602082019050919050565b60006020820190508181036000830152611e3e81611e02565b9050919050565b600081519050919050565b6000601f19601f8301169050919050565b6000611e6c82611e45565b611e768185611506565b9350611e86818560208601611d67565b611e8f81611e50565b840191505092915050565b60006020820190508181036000830152611eb48184611e61565b90509291505056fea26469706673582212202301fddddc6148401857f684a05c2f70248a8971da734b614f801762b853a10364736f6c63430008110033",
  "devdoc": {
    "author": "@loopstudio",
    "details": "Contract that enables to raise funds using ERC20 tokens. campaigns pledged amount can be claimed if",
    "events": {
      "Cancel(uint256)": {
        "details": "Event emited when Campaign cancelation succeeds"
      },
      "Launch(uint256,uint256,address,uint64,uint64)": {
        "details": "Event emited when Campaign launch succeeds"
      }
    },
    "kind": "dev",
    "methods": {
      "cancel(uint256)": {
        "details": "Cancels a campaign, changing the status to Canceled and emits a Cancel event.",
        "params": {
          "_campaignId": "id of the campaign to cancel"
        }
      },
      "constructor": {
        "details": "Contract constructor",
        "params": {
          "_maxCampaignDurationInDays": "timestamp that represents the max duration for a campaign.",
          "_token": "ERC20 token address"
        }
      },
      "pledge(uint256,uint256)": {
        "params": {
          "_amount": "the amount to pledge",
          "_campaignId": "id of the campaign pledge"
        }
      },
      "unpledge(uint256,uint256)": {
        "details": "Unpledge contribution made to a campaign if not ended. Perform a SafeER20.transferFrom. Emit a Unpledge event if succeed.",
        "params": {
          "_amount": "the amount to unpledge",
          "_campaignId": "id of the campaign to unpledge"
        }
      }
    },
    "stateVariables": {
      "idCounter": {
        "details": "Counter for storage of campaign ids"
      },
      "idsToCampaigns": {
        "details": "Mapping that stores the campaigns by their id"
      },
      "idsToPledgedAmountByAddress": {
        "details": "Mapping that stores by campaingId, the amount pledged by address. Id -> pledger -> amount"
      },
      "maxCampaignDurationInDays": {
        "details": "timestamp = that represents the max duration for a campaign. I.e 60 days"
      },
      "tokenAddress": {
        "details": "Token must be ERC20 compliant"
      }
    },
    "title": "Crowdfunding",
    "version": 1
  },
  "userdoc": {
    "kind": "user",
    "methods": {
      "cancel(uint256)": {
        "notice": "Cancels a campaign"
      },
      "tokenAddress()": {
        "notice": "Token address in which funds will be raised for each campaign"
      },
      "unpledge(uint256,uint256)": {
        "notice": "Unpledge contribution to campaign"
      }
    },
    "notice": "Contract for campaigns fundraising",
    "version": 1
  },
  "storageLayout": {
    "storage": [
      {
        "astId": 1508,
        "contract": "contracts/Crowdfunding.sol:Crowdfunding",
        "label": "idCounter",
        "offset": 0,
        "slot": "0",
        "type": "t_struct(Counter)1364_storage"
      },
      {
        "astId": 1514,
        "contract": "contracts/Crowdfunding.sol:Crowdfunding",
        "label": "idsToCampaigns",
        "offset": 0,
        "slot": "1",
        "type": "t_mapping(t_uint256,t_struct(Campaign)1501_storage)"
      },
      {
        "astId": 1521,
        "contract": "contracts/Crowdfunding.sol:Crowdfunding",
        "label": "idsToPledgedAmountByAddress",
        "offset": 0,
        "slot": "2",
        "type": "t_mapping(t_uint256,t_mapping(t_address,t_uint256))"
      }
    ],
    "types": {
      "t_address": {
        "encoding": "inplace",
        "label": "address",
        "numberOfBytes": "20"
      },
      "t_enum(CampaignStatus)1487": {
        "encoding": "inplace",
        "label": "enum Crowdfunding.CampaignStatus",
        "numberOfBytes": "1"
      },
      "t_mapping(t_address,t_uint256)": {
        "encoding": "mapping",
        "key": "t_address",
        "label": "mapping(address => uint256)",
        "numberOfBytes": "32",
        "value": "t_uint256"
      },
      "t_mapping(t_uint256,t_mapping(t_address,t_uint256))": {
        "encoding": "mapping",
        "key": "t_uint256",
        "label": "mapping(uint256 => mapping(address => uint256))",
        "numberOfBytes": "32",
        "value": "t_mapping(t_address,t_uint256)"
      },
      "t_mapping(t_uint256,t_struct(Campaign)1501_storage)": {
        "encoding": "mapping",
        "key": "t_uint256",
        "label": "mapping(uint256 => struct Crowdfunding.Campaign)",
        "numberOfBytes": "32",
        "value": "t_struct(Campaign)1501_storage"
      },
      "t_struct(Campaign)1501_storage": {
        "encoding": "inplace",
        "label": "struct Crowdfunding.Campaign",
        "members": [
          {
            "astId": 1489,
            "contract": "contracts/Crowdfunding.sol:Crowdfunding",
            "label": "creator",
            "offset": 0,
            "slot": "0",
            "type": "t_address"
          },
          {
            "astId": 1491,
            "contract": "contracts/Crowdfunding.sol:Crowdfunding",
            "label": "goalAmount",
            "offset": 0,
            "slot": "1",
            "type": "t_uint256"
          },
          {
            "astId": 1493,
            "contract": "contracts/Crowdfunding.sol:Crowdfunding",
            "label": "pledgedAmount",
            "offset": 0,
            "slot": "2",
            "type": "t_uint256"
          },
          {
            "astId": 1495,
            "contract": "contracts/Crowdfunding.sol:Crowdfunding",
            "label": "startDate",
            "offset": 0,
            "slot": "3",
            "type": "t_uint64"
          },
          {
            "astId": 1497,
            "contract": "contracts/Crowdfunding.sol:Crowdfunding",
            "label": "endDate",
            "offset": 8,
            "slot": "3",
            "type": "t_uint64"
          },
          {
            "astId": 1500,
            "contract": "contracts/Crowdfunding.sol:Crowdfunding",
            "label": "status",
            "offset": 16,
            "slot": "3",
            "type": "t_enum(CampaignStatus)1487"
          }
        ],
        "numberOfBytes": "128"
      },
      "t_struct(Counter)1364_storage": {
        "encoding": "inplace",
        "label": "struct Counters.Counter",
        "members": [
          {
            "astId": 1363,
            "contract": "contracts/Crowdfunding.sol:Crowdfunding",
            "label": "_value",
            "offset": 0,
            "slot": "0",
            "type": "t_uint256"
          }
        ],
        "numberOfBytes": "32"
      },
      "t_uint256": {
        "encoding": "inplace",
        "label": "uint256",
        "numberOfBytes": "32"
      },
      "t_uint64": {
        "encoding": "inplace",
        "label": "uint64",
        "numberOfBytes": "8"
      }
    }
  }
}