{
  "address": "0x848b92662f67971cf92ce0214107bBDA90316cda",
  "abi": [
    {
      "inputs": [
        {
          "internalType": "address",
          "name": "_token",
          "type": "address"
        },
        {
          "internalType": "uint64",
          "name": "_maxCampaignDurationInDays",
          "type": "uint64"
        }
      ],
      "stateMutability": "nonpayable",
      "type": "constructor"
    },
    {
      "anonymous": false,
      "inputs": [
        {
          "indexed": false,
          "internalType": "uint256",
          "name": "id",
          "type": "uint256"
        }
      ],
      "name": "Cancel",
      "type": "event"
    },
    {
      "anonymous": false,
      "inputs": [
        {
          "indexed": false,
          "internalType": "uint256",
          "name": "id",
          "type": "uint256"
        },
        {
          "indexed": true,
          "internalType": "address",
          "name": "creator",
          "type": "address"
        },
        {
          "indexed": false,
          "internalType": "uint256",
          "name": "amount",
          "type": "uint256"
        }
      ],
      "name": "Claim",
      "type": "event"
    },
    {
      "anonymous": false,
      "inputs": [
        {
          "indexed": false,
          "internalType": "uint256",
          "name": "id",
          "type": "uint256"
        },
        {
          "indexed": false,
          "internalType": "uint256",
          "name": "goal",
          "type": "uint256"
        },
        {
          "indexed": true,
          "internalType": "address",
          "name": "creator",
          "type": "address"
        },
        {
          "indexed": false,
          "internalType": "uint64",
          "name": "startDate",
          "type": "uint64"
        },
        {
          "indexed": false,
          "internalType": "uint64",
          "name": "endDate",
          "type": "uint64"
        }
      ],
      "name": "Launch",
      "type": "event"
    },
    {
      "anonymous": false,
      "inputs": [
        {
          "indexed": false,
          "internalType": "uint256",
          "name": "id",
          "type": "uint256"
        },
        {
          "indexed": true,
          "internalType": "address",
          "name": "pledger",
          "type": "address"
        },
        {
          "indexed": false,
          "internalType": "uint256",
          "name": "amount",
          "type": "uint256"
        }
      ],
      "name": "Pledge",
      "type": "event"
    },
    {
      "anonymous": false,
      "inputs": [
        {
          "indexed": false,
          "internalType": "uint256",
          "name": "id",
          "type": "uint256"
        },
        {
          "indexed": true,
          "internalType": "address",
          "name": "pledger",
          "type": "address"
        },
        {
          "indexed": false,
          "internalType": "uint256",
          "name": "amount",
          "type": "uint256"
        }
      ],
      "name": "Refund",
      "type": "event"
    },
    {
      "anonymous": false,
      "inputs": [
        {
          "indexed": false,
          "internalType": "uint256",
          "name": "id",
          "type": "uint256"
        },
        {
          "indexed": true,
          "internalType": "address",
          "name": "pledger",
          "type": "address"
        },
        {
          "indexed": false,
          "internalType": "uint256",
          "name": "amount",
          "type": "uint256"
        }
      ],
      "name": "Unpledge",
      "type": "event"
    },
    {
      "inputs": [
        {
          "internalType": "uint256",
          "name": "_campaignId",
          "type": "uint256"
        }
      ],
      "name": "cancel",
      "outputs": [],
      "stateMutability": "nonpayable",
      "type": "function"
    },
    {
      "inputs": [
        {
          "internalType": "uint256",
          "name": "_campaignId",
          "type": "uint256"
        }
      ],
      "name": "claim",
      "outputs": [],
      "stateMutability": "nonpayable",
      "type": "function"
    },
    {
      "inputs": [
        {
          "internalType": "uint256",
          "name": "",
          "type": "uint256"
        }
      ],
      "name": "idsToCampaigns",
      "outputs": [
        {
          "internalType": "address",
          "name": "creator",
          "type": "address"
        },
        {
          "internalType": "uint256",
          "name": "goalAmount",
          "type": "uint256"
        },
        {
          "internalType": "uint256",
          "name": "pledgedAmount",
          "type": "uint256"
        },
        {
          "internalType": "uint64",
          "name": "startDate",
          "type": "uint64"
        },
        {
          "internalType": "uint64",
          "name": "endDate",
          "type": "uint64"
        },
        {
          "internalType": "enum Crowdfunding.CampaignStatus",
          "name": "status",
          "type": "uint8"
        }
      ],
      "stateMutability": "view",
      "type": "function"
    },
    {
      "inputs": [
        {
          "internalType": "uint256",
          "name": "",
          "type": "uint256"
        },
        {
          "internalType": "address",
          "name": "",
          "type": "address"
        }
      ],
      "name": "idsToPledgedAmountByAddress",
      "outputs": [
        {
          "internalType": "uint256",
          "name": "",
          "type": "uint256"
        }
      ],
      "stateMutability": "view",
      "type": "function"
    },
    {
      "inputs": [
        {
          "internalType": "uint256",
          "name": "_goalAmount",
          "type": "uint256"
        },
        {
          "internalType": "uint64",
          "name": "_startDate",
          "type": "uint64"
        },
        {
          "internalType": "uint64",
          "name": "_endDate",
          "type": "uint64"
        }
      ],
      "name": "launch",
      "outputs": [],
      "stateMutability": "nonpayable",
      "type": "function"
    },
    {
      "inputs": [],
      "name": "maxCampaignDurationInDays",
      "outputs": [
        {
          "internalType": "uint64",
          "name": "",
          "type": "uint64"
        }
      ],
      "stateMutability": "view",
      "type": "function"
    },
    {
      "inputs": [
        {
          "internalType": "uint256",
          "name": "_campaignId",
          "type": "uint256"
        },
        {
          "internalType": "uint256",
          "name": "_amount",
          "type": "uint256"
        }
      ],
      "name": "pledge",
      "outputs": [],
      "stateMutability": "nonpayable",
      "type": "function"
    },
    {
      "inputs": [
        {
          "internalType": "uint256",
          "name": "_campaignId",
          "type": "uint256"
        }
      ],
      "name": "refund",
      "outputs": [],
      "stateMutability": "nonpayable",
      "type": "function"
    },
    {
      "inputs": [],
      "name": "tokenAddress",
      "outputs": [
        {
          "internalType": "address",
          "name": "",
          "type": "address"
        }
      ],
      "stateMutability": "view",
      "type": "function"
    },
    {
      "inputs": [
        {
          "internalType": "uint256",
          "name": "_campaignId",
          "type": "uint256"
        },
        {
          "internalType": "uint256",
          "name": "_amount",
          "type": "uint256"
        }
      ],
      "name": "unpledge",
      "outputs": [],
      "stateMutability": "nonpayable",
      "type": "function"
    }
  ],
  "transactionHash": "0x82a641f6527ef8815aa030d5ece077f5bf0c90886a99e9d5e751c55bccf6a0eb",
  "args": [
    "0xB6434EE024892CBD8e3364048a259Ef779542475",
    1728000
  ],
  "numDeployments": 1,
  "solcInputHash": "bc1ae0c9993bf1e0277ebf3ae575dd00",
  "bytecode": "0x60c06040523480156200001157600080fd5b50604051620029fd380380620029fd833981810160405281019062000037919062000200565b600073ffffffffffffffffffffffffffffffffffffffff168273ffffffffffffffffffffffffffffffffffffffff1603620000a9576040517f08c379a0000000000000000000000000000000000000000000000000000000008152600401620000a090620002a8565b60405180910390fd5b60008167ffffffffffffffff1611620000f9576040517f08c379a0000000000000000000000000000000000000000000000000000000008152600401620000f0906200031a565b60405180910390fd5b8173ffffffffffffffffffffffffffffffffffffffff1660808173ffffffffffffffffffffffffffffffffffffffff16815250508067ffffffffffffffff1660a08167ffffffffffffffff168152505050506200033c565b600080fd5b600073ffffffffffffffffffffffffffffffffffffffff82169050919050565b6000620001838262000156565b9050919050565b620001958162000176565b8114620001a157600080fd5b50565b600081519050620001b5816200018a565b92915050565b600067ffffffffffffffff82169050919050565b620001da81620001bb565b8114620001e657600080fd5b50565b600081519050620001fa81620001cf565b92915050565b600080604083850312156200021a576200021962000151565b5b60006200022a85828601620001a4565b92505060206200023d85828601620001e9565b9150509250929050565b600082825260208201905092915050565b7f455243323020616464726573732063616e6e6f74206265207a65726f00000000600082015250565b600062000290601c8362000247565b91506200029d8262000258565b602082019050919050565b60006020820190508181036000830152620002c38162000281565b9050919050565b7f4475726174696f6e206d757374206265206774207468616e207a65726f000000600082015250565b600062000302601d8362000247565b91506200030f82620002ca565b602082019050919050565b600060208201905081810360008301526200033581620002f3565b9050919050565b60805160a0516126786200038560003960008181610a53015261107201526000818161049a0152818161075a015281816110020152818161104e015261139c01526126786000f3fe608060405234801561001057600080fd5b506004361061009e5760003560e01c806362048031116100665780636204803114610143578063711853ab146101785780639d76ea58146101945780639dc809e1146101b2578063fde327be146101d05761009e565b8063278ecde1146100a3578063379607f5146100bf57806340e58ee5146100db5780634e728486146100f75780635918245a14610127575b600080fd5b6100bd60048036038101906100b891906117e8565b6101ec565b005b6100d960048036038101906100d491906117e8565b6104e3565b005b6100f560048036038101906100f091906117e8565b6107a2565b005b610111600480360381019061010c9190611873565b610946565b60405161011e91906118c2565b60405180910390f35b610141600480360381019061013c919061191d565b61096b565b005b61015d600480360381019061015891906117e8565b610caf565b60405161016f96959493929190611a05565b60405180910390f35b610192600480360381019061018d9190611a66565b610d40565b005b61019c61104c565b6040516101a99190611aa6565b60405180910390f35b6101ba611070565b6040516101c79190611ac1565b60405180910390f35b6101ea60048036038101906101e59190611a66565b611094565b005b6000600160008381526020019081526020016000209050600073ffffffffffffffffffffffffffffffffffffffff168160000160009054906101000a900473ffffffffffffffffffffffffffffffffffffffff1673ffffffffffffffffffffffffffffffffffffffff1603610296576040517f08c379a000000000000000000000000000000000000000000000000000000000815260040161028d90611b39565b60405180910390fd5b428160030160089054906101000a900467ffffffffffffffff1667ffffffffffffffff16106102fa576040517f08c379a00000000000000000000000000000000000000000000000000000000081526004016102f190611ba5565b60405180910390fd5b8060010154816002015410610344576040517f08c379a000000000000000000000000000000000000000000000000000000000815260040161033b90611c11565b60405180910390fd5b60006002600084815260200190815260200160002060003373ffffffffffffffffffffffffffffffffffffffff1673ffffffffffffffffffffffffffffffffffffffff168152602001908152602001600020549050600081116103dc576040517f08c379a00000000000000000000000000000000000000000000000000000000081526004016103d390611c7d565b60405180910390fd5b806002600085815260200190815260200160002060003373ffffffffffffffffffffffffffffffffffffffff1673ffffffffffffffffffffffffffffffffffffffff168152602001908152602001600020600082825461043c9190611ccc565b925050819055503373ffffffffffffffffffffffffffffffffffffffff167f21e12a7cad0da5928167e1084ea4d5fdf8d9af66657a2543a9ac76a0ca081477848360405161048b929190611d00565b60405180910390a26104de33827f000000000000000000000000000000000000000000000000000000000000000073ffffffffffffffffffffffffffffffffffffffff166113e69092919063ffffffff16565b505050565b6000600160008381526020019081526020016000209050600073ffffffffffffffffffffffffffffffffffffffff168160000160009054906101000a900473ffffffffffffffffffffffffffffffffffffffff1673ffffffffffffffffffffffffffffffffffffffff160361058d576040517f08c379a000000000000000000000000000000000000000000000000000000000815260040161058490611b39565b60405180910390fd5b3373ffffffffffffffffffffffffffffffffffffffff168160000160009054906101000a900473ffffffffffffffffffffffffffffffffffffffff1673ffffffffffffffffffffffffffffffffffffffff161461061f576040517f08c379a000000000000000000000000000000000000000000000000000000000815260040161061690611d75565b60405180910390fd5b80600101548160020154101561066a576040517f08c379a000000000000000000000000000000000000000000000000000000000815260040161066190611de1565b60405180910390fd5b428160030160089054906101000a900467ffffffffffffffff1667ffffffffffffffff16106106ce576040517f08c379a00000000000000000000000000000000000000000000000000000000081526004016106c590611ba5565b60405180910390fd5b60028160030160106101000a81548160ff021916908360028111156106f6576106f561198e565b5b02179055503373ffffffffffffffffffffffffffffffffffffffff167f3ed1528b0fdc7c5207c1bf935e34a667e13656b9ed165260c522be0bc544f303838360020154604051610747929190611d00565b60405180910390a261079e3382600201547f000000000000000000000000000000000000000000000000000000000000000073ffffffffffffffffffffffffffffffffffffffff166113e69092919063ffffffff16565b5050565b6000600160008381526020019081526020016000209050600073ffffffffffffffffffffffffffffffffffffffff168160000160009054906101000a900473ffffffffffffffffffffffffffffffffffffffff1673ffffffffffffffffffffffffffffffffffffffff160361084c576040517f08c379a000000000000000000000000000000000000000000000000000000000815260040161084390611b39565b60405180910390fd5b3373ffffffffffffffffffffffffffffffffffffffff168160000160009054906101000a900473ffffffffffffffffffffffffffffffffffffffff1673ffffffffffffffffffffffffffffffffffffffff16146108de576040517f08c379a00000000000000000000000000000000000000000000000000000000081526004016108d590611d75565b60405180910390fd5b60018160030160106101000a81548160ff021916908360028111156109065761090561198e565b5b02179055507f8bf30e7ff26833413be5f69e1d373744864d600b664204b4a2f9844a8eedb9ed8260405161093a91906118c2565b60405180910390a15050565b6002602052816000526040600020602052806000526040600020600091509150505481565b600083116109ae576040517f08c379a00000000000000000000000000000000000000000000000000000000081526004016109a590611e4d565b60405180910390fd5b428267ffffffffffffffff1610156109fb576040517f08c379a00000000000000000000000000000000000000000000000000000000081526004016109f290611eb9565b60405180910390fd5b8167ffffffffffffffff168167ffffffffffffffff1611610a51576040517f08c379a0000000000000000000000000000000000000000000000000000000008152600401610a4890611f25565b60405180910390fd5b7f000000000000000000000000000000000000000000000000000000000000000067ffffffffffffffff168282610a889190611f45565b67ffffffffffffffff161115610ad3576040517f08c379a0000000000000000000000000000000000000000000000000000000008152600401610aca90611fcd565b60405180910390fd5b610add600061146c565b6000610ae96000611482565b90506040518060c001604052803373ffffffffffffffffffffffffffffffffffffffff168152602001858152602001600081526020018467ffffffffffffffff1681526020018367ffffffffffffffff16815260200160006002811115610b5357610b5261198e565b5b8152506001600083815260200190815260200160002060008201518160000160006101000a81548173ffffffffffffffffffffffffffffffffffffffff021916908373ffffffffffffffffffffffffffffffffffffffff160217905550602082015181600101556040820151816002015560608201518160030160006101000a81548167ffffffffffffffff021916908367ffffffffffffffff16021790555060808201518160030160086101000a81548167ffffffffffffffff021916908367ffffffffffffffff16021790555060a08201518160030160106101000a81548160ff02191690836002811115610c4d57610c4c61198e565b5b02179055509050503373ffffffffffffffffffffffffffffffffffffffff167fbc4780dc990db2cd2aeac6bb493759184a77466e5e4478b010d230e98c76553e82868686604051610ca19493929190611fed565b60405180910390a250505050565b60016020528060005260406000206000915090508060000160009054906101000a900473ffffffffffffffffffffffffffffffffffffffff16908060010154908060020154908060030160009054906101000a900467ffffffffffffffff16908060030160089054906101000a900467ffffffffffffffff16908060030160109054906101000a900460ff16905086565b60008111610d83576040517f08c379a0000000000000000000000000000000000000000000000000000000008152600401610d7a9061207e565b60405180910390fd5b6000600160008481526020019081526020016000209050600073ffffffffffffffffffffffffffffffffffffffff168160000160009054906101000a900473ffffffffffffffffffffffffffffffffffffffff1673ffffffffffffffffffffffffffffffffffffffff1603610e2d576040517f08c379a0000000000000000000000000000000000000000000000000000000008152600401610e2490611b39565b60405180910390fd5b428160030160089054906101000a900467ffffffffffffffff1667ffffffffffffffff1611610e91576040517f08c379a0000000000000000000000000000000000000000000000000000000008152600401610e88906120ea565b60405180910390fd5b60006002600085815260200190815260200160002060003373ffffffffffffffffffffffffffffffffffffffff1673ffffffffffffffffffffffffffffffffffffffff16815260200190815260200160002054905082811015610f29576040517f08c379a0000000000000000000000000000000000000000000000000000000008152600401610f2090612156565b60405180910390fd5b82826002016000828254610f3d9190611ccc565b92505081905550826002600086815260200190815260200160002060003373ffffffffffffffffffffffffffffffffffffffff1673ffffffffffffffffffffffffffffffffffffffff1681526020019081526020016000206000828254610fa49190611ccc565b925050819055503373ffffffffffffffffffffffffffffffffffffffff167f2eeeab891b26a214d1b25749f88a406bdea852bd8c9bfda977e0ef8114c180ba8585604051610ff3929190611d00565b60405180910390a261104633847f000000000000000000000000000000000000000000000000000000000000000073ffffffffffffffffffffffffffffffffffffffff166113e69092919063ffffffff16565b50505050565b7f000000000000000000000000000000000000000000000000000000000000000081565b7f000000000000000000000000000000000000000000000000000000000000000081565b600081116110d7576040517f08c379a00000000000000000000000000000000000000000000000000000000081526004016110ce906121c2565b60405180910390fd5b6000600160008481526020019081526020016000209050600073ffffffffffffffffffffffffffffffffffffffff168160000160009054906101000a900473ffffffffffffffffffffffffffffffffffffffff1673ffffffffffffffffffffffffffffffffffffffff1603611181576040517f08c379a000000000000000000000000000000000000000000000000000000000815260040161117890611b39565b60405180910390fd5b600060028111156111955761119461198e565b5b8160030160109054906101000a900460ff1660028111156111b9576111b861198e565b5b146111f9576040517f08c379a00000000000000000000000000000000000000000000000000000000081526004016111f09061222e565b60405180910390fd5b428160030160009054906101000a900467ffffffffffffffff1667ffffffffffffffff16111561125e576040517f08c379a00000000000000000000000000000000000000000000000000000000081526004016112559061229a565b60405180910390fd5b428160030160089054906101000a900467ffffffffffffffff1667ffffffffffffffff16116112c2576040517f08c379a00000000000000000000000000000000000000000000000000000000081526004016112b9906120ea565b60405180910390fd5b818160020160008282546112d691906122ba565b92505081905550816002600085815260200190815260200160002060003373ffffffffffffffffffffffffffffffffffffffff1673ffffffffffffffffffffffffffffffffffffffff168152602001908152602001600020600082825461133d91906122ba565b925050819055503373ffffffffffffffffffffffffffffffffffffffff167f06bdb975df800a73232998e71ed585d536222f1dfeaa622d7f62a23ada686c82848460405161138c929190611d00565b60405180910390a26113e13330847f000000000000000000000000000000000000000000000000000000000000000073ffffffffffffffffffffffffffffffffffffffff16611490909392919063ffffffff16565b505050565b6114678363a9059cbb60e01b84846040516024016114059291906122ee565b604051602081830303815290604052907bffffffffffffffffffffffffffffffffffffffffffffffffffffffff19166020820180517bffffffffffffffffffffffffffffffffffffffffffffffffffffffff8381831617835250505050611519565b505050565b6001816000016000828254019250508190555050565b600081600001549050919050565b611513846323b872dd60e01b8585856040516024016114b193929190612317565b604051602081830303815290604052907bffffffffffffffffffffffffffffffffffffffffffffffffffffffff19166020820180517bffffffffffffffffffffffffffffffffffffffffffffffffffffffff8381831617835250505050611519565b50505050565b600061157b826040518060400160405280602081526020017f5361666545524332303a206c6f772d6c6576656c2063616c6c206661696c65648152508573ffffffffffffffffffffffffffffffffffffffff166115e09092919063ffffffff16565b90506000815111156115db578080602001905181019061159b9190612386565b6115da576040517f08c379a00000000000000000000000000000000000000000000000000000000081526004016115d190612425565b60405180910390fd5b5b505050565b60606115ef84846000856115f8565b90509392505050565b60608247101561163d576040517f08c379a0000000000000000000000000000000000000000000000000000000008152600401611634906124b7565b60405180910390fd5b6000808673ffffffffffffffffffffffffffffffffffffffff1685876040516116669190612548565b60006040518083038185875af1925050503d80600081146116a3576040519150601f19603f3d011682016040523d82523d6000602084013e6116a8565b606091505b50915091506116b9878383876116c5565b92505050949350505050565b6060831561172757600083510361171f576116df8561173a565b61171e576040517f08c379a0000000000000000000000000000000000000000000000000000000008152600401611715906125ab565b60405180910390fd5b5b829050611732565b611731838361175d565b5b949350505050565b6000808273ffffffffffffffffffffffffffffffffffffffff163b119050919050565b6000825111156117705781518083602001fd5b806040517f08c379a00000000000000000000000000000000000000000000000000000000081526004016117a49190612620565b60405180910390fd5b600080fd5b6000819050919050565b6117c5816117b2565b81146117d057600080fd5b50565b6000813590506117e2816117bc565b92915050565b6000602082840312156117fe576117fd6117ad565b5b600061180c848285016117d3565b91505092915050565b600073ffffffffffffffffffffffffffffffffffffffff82169050919050565b600061184082611815565b9050919050565b61185081611835565b811461185b57600080fd5b50565b60008135905061186d81611847565b92915050565b6000806040838503121561188a576118896117ad565b5b6000611898858286016117d3565b92505060206118a98582860161185e565b9150509250929050565b6118bc816117b2565b82525050565b60006020820190506118d760008301846118b3565b92915050565b600067ffffffffffffffff82169050919050565b6118fa816118dd565b811461190557600080fd5b50565b600081359050611917816118f1565b92915050565b600080600060608486031215611936576119356117ad565b5b6000611944868287016117d3565b935050602061195586828701611908565b925050604061196686828701611908565b9150509250925092565b61197981611835565b82525050565b611988816118dd565b82525050565b7f4e487b7100000000000000000000000000000000000000000000000000000000600052602160045260246000fd5b600381106119ce576119cd61198e565b5b50565b60008190506119df826119bd565b919050565b60006119ef826119d1565b9050919050565b6119ff816119e4565b82525050565b600060c082019050611a1a6000830189611970565b611a2760208301886118b3565b611a3460408301876118b3565b611a41606083018661197f565b611a4e608083018561197f565b611a5b60a08301846119f6565b979650505050505050565b60008060408385031215611a7d57611a7c6117ad565b5b6000611a8b858286016117d3565b9250506020611a9c858286016117d3565b9150509250929050565b6000602082019050611abb6000830184611970565b92915050565b6000602082019050611ad6600083018461197f565b92915050565b600082825260208201905092915050565b7f4e6f742065786973747300000000000000000000000000000000000000000000600082015250565b6000611b23600a83611adc565b9150611b2e82611aed565b602082019050919050565b60006020820190508181036000830152611b5281611b16565b9050919050565b7f5374696c6c206163746976650000000000000000000000000000000000000000600082015250565b6000611b8f600c83611adc565b9150611b9a82611b59565b602082019050919050565b60006020820190508181036000830152611bbe81611b82565b9050919050565b7f43616d706169676e20726561636865642069747320676f616c00000000000000600082015250565b6000611bfb601983611adc565b9150611c0682611bc5565b602082019050919050565b60006020820190508181036000830152611c2a81611bee565b9050919050565b7f4e6f2066756e647320746f20726566756e640000000000000000000000000000600082015250565b6000611c67601283611adc565b9150611c7282611c31565b602082019050919050565b60006020820190508181036000830152611c9681611c5a565b9050919050565b7f4e487b7100000000000000000000000000000000000000000000000000000000600052601160045260246000fd5b6000611cd7826117b2565b9150611ce2836117b2565b9250828203905081811115611cfa57611cf9611c9d565b5b92915050565b6000604082019050611d1560008301856118b3565b611d2260208301846118b3565b9392505050565b7f4e6f742063726561746f72000000000000000000000000000000000000000000600082015250565b6000611d5f600b83611adc565b9150611d6a82611d29565b602082019050919050565b60006020820190508181036000830152611d8e81611d52565b9050919050565b7f476f616c206e6f74207265616368656400000000000000000000000000000000600082015250565b6000611dcb601083611adc565b9150611dd682611d95565b602082019050919050565b60006020820190508181036000830152611dfa81611dbe565b9050919050565b7f476f616c206d7573742062652067742030000000000000000000000000000000600082015250565b6000611e37601183611adc565b9150611e4282611e01565b602082019050919050565b60006020820190508181036000830152611e6681611e2a565b9050919050565b7f5374617274206d75737420626520677465206e6f770000000000000000000000600082015250565b6000611ea3601583611adc565b9150611eae82611e6d565b602082019050919050565b60006020820190508181036000830152611ed281611e96565b9050919050565b7f456e642064617465206d75737420626520677420737461727420646174650000600082015250565b6000611f0f601e83611adc565b9150611f1a82611ed9565b602082019050919050565b60006020820190508181036000830152611f3e81611f02565b9050919050565b6000611f50826118dd565b9150611f5b836118dd565b9250828203905067ffffffffffffffff811115611f7b57611f7a611c9d565b5b92915050565b7f4475726174696f6e2065786365656473206d6178696d756d0000000000000000600082015250565b6000611fb7601883611adc565b9150611fc282611f81565b602082019050919050565b60006020820190508181036000830152611fe681611faa565b9050919050565b600060808201905061200260008301876118b3565b61200f60208301866118b3565b61201c604083018561197f565b612029606083018461197f565b95945050505050565b7f556e706c6564676520616d6f756e74206d757374206265206774203000000000600082015250565b6000612068601c83611adc565b915061207382612032565b602082019050919050565b600060208201905081810360008301526120978161205b565b9050919050565b7f456e646564000000000000000000000000000000000000000000000000000000600082015250565b60006120d4600583611adc565b91506120df8261209e565b602082019050919050565b60006020820190508181036000830152612103816120c7565b9050919050565b7f496e73756666696369656e742062616c616e636520746f20756e706c65646765600082015250565b6000612140602083611adc565b915061214b8261210a565b602082019050919050565b6000602082019050818103600083015261216f81612133565b9050919050565b7f506c6564676520616d6f756e74206d7573742062652067742030000000000000600082015250565b60006121ac601a83611adc565b91506121b782612176565b602082019050919050565b600060208201905081810360008301526121db8161219f565b9050919050565b7f496e76616c696420737461747573000000000000000000000000000000000000600082015250565b6000612218600e83611adc565b9150612223826121e2565b602082019050919050565b600060208201905081810360008301526122478161220b565b9050919050565b7f4e6f742073746172746564000000000000000000000000000000000000000000600082015250565b6000612284600b83611adc565b915061228f8261224e565b602082019050919050565b600060208201905081810360008301526122b381612277565b9050919050565b60006122c5826117b2565b91506122d0836117b2565b92508282019050808211156122e8576122e7611c9d565b5b92915050565b60006040820190506123036000830185611970565b61231060208301846118b3565b9392505050565b600060608201905061232c6000830186611970565b6123396020830185611970565b61234660408301846118b3565b949350505050565b60008115159050919050565b6123638161234e565b811461236e57600080fd5b50565b6000815190506123808161235a565b92915050565b60006020828403121561239c5761239b6117ad565b5b60006123aa84828501612371565b91505092915050565b7f5361666545524332303a204552433230206f7065726174696f6e20646964206e60008201527f6f74207375636365656400000000000000000000000000000000000000000000602082015250565b600061240f602a83611adc565b915061241a826123b3565b604082019050919050565b6000602082019050818103600083015261243e81612402565b9050919050565b7f416464726573733a20696e73756666696369656e742062616c616e636520666f60008201527f722063616c6c0000000000000000000000000000000000000000000000000000602082015250565b60006124a1602683611adc565b91506124ac82612445565b604082019050919050565b600060208201905081810360008301526124d081612494565b9050919050565b600081519050919050565b600081905092915050565b60005b8381101561250b5780820151818401526020810190506124f0565b60008484015250505050565b6000612522826124d7565b61252c81856124e2565b935061253c8185602086016124ed565b80840191505092915050565b60006125548284612517565b915081905092915050565b7f416464726573733a2063616c6c20746f206e6f6e2d636f6e7472616374000000600082015250565b6000612595601d83611adc565b91506125a08261255f565b602082019050919050565b600060208201905081810360008301526125c481612588565b9050919050565b600081519050919050565b6000601f19601f8301169050919050565b60006125f2826125cb565b6125fc8185611adc565b935061260c8185602086016124ed565b612615816125d6565b840191505092915050565b6000602082019050818103600083015261263a81846125e7565b90509291505056fea264697066735822122089ff0288f7ea6c48b53b579ead81d198454f63afff1e4d22f754a6e7e4609c6964736f6c63430008110033",
  "devdoc": {
    "author": "@loopstudio",
    "details": "Contract that enables to raise funds using ERC20 tokens. campaigns pledged amount can be claimed if",
    "events": {
      "Cancel(uint256)": {
        "details": "Event emited when Campaign cancelation succeeds"
      },
      "Launch(uint256,uint256,address,uint64,uint64)": {
        "details": "Event emited when Campaign launch succeeds"
      }
    },
    "kind": "dev",
    "methods": {
      "cancel(uint256)": {
        "details": "Cancels a campaign, changing the status to Canceled and emits a Cancel event.",
        "params": {
          "_campaignId": "id of the campaign to cancel"
        }
      },
      "claim(uint256)": {
        "details": "Claims a campaign, changing the status to Claimed and emits a Claim event. Perform a safeTransfer to the campaing's creator.",
        "params": {
          "_campaignId": "id of the campaign to claim."
        }
      },
      "constructor": {
        "details": "Contract constructor",
        "params": {
          "_maxCampaignDurationInDays": "timestamp that represents the max duration for a campaign.",
          "_token": "ERC20 token address"
        }
      },
      "pledge(uint256,uint256)": {
        "params": {
          "_amount": "the amount to pledge",
          "_campaignId": "id of the campaign pledge"
        }
      },
      "refund(uint256)": {
        "details": "Performs a refund operation of the pledger amount if campaing does not reached the goal. Performs a safeTransfer to the msg.sender and emits a Refund event.",
        "params": {
          "_campaignId": "id of the campaign to refund ."
        }
      },
      "unpledge(uint256,uint256)": {
        "details": "Unpledge contribution made to a campaign if not ended. Perform a SafeER20.transferFrom. Emit a Unpledge event if succeed.",
        "params": {
          "_amount": "the amount to unpledge",
          "_campaignId": "id of the campaign to unpledge"
        }
      }
    },
    "stateVariables": {
      "idCounter": {
        "details": "Counter for storage of campaign ids"
      },
      "idsToCampaigns": {
        "details": "Mapping that stores the campaigns by their id"
      },
      "idsToPledgedAmountByAddress": {
        "details": "Mapping that stores by campaingId, the amount pledged by address. Id -> pledger -> amount"
      },
      "maxCampaignDurationInDays": {
        "details": "timestamp = that represents the max duration for a campaign. I.e 60 days"
      },
      "tokenAddress": {
        "details": "Token must be ERC20 compliant"
      }
    },
    "title": "Crowdfunding",
    "version": 1
  },
  "userdoc": {
    "kind": "user",
    "methods": {
      "cancel(uint256)": {
        "notice": "Cancels a campaign"
      },
      "claim(uint256)": {
        "notice": "Claims the campaign's pledged amount."
      },
      "refund(uint256)": {
        "notice": "Refund the pledged amount if ended and goal was not reached."
      },
      "tokenAddress()": {
        "notice": "Token address in which funds will be raised for each campaign"
      },
      "unpledge(uint256,uint256)": {
        "notice": "Unpledge contribution to campaign"
      }
    },
    "notice": "Contract for campaigns fundraising",
    "version": 1
  },
  "storageLayout": {
    "storage": [
      {
        "astId": 1520,
        "contract": "contracts/Crowdfunding.sol:Crowdfunding",
        "label": "idCounter",
        "offset": 0,
        "slot": "0",
        "type": "t_struct(Counter)1364_storage"
      },
      {
        "astId": 1526,
        "contract": "contracts/Crowdfunding.sol:Crowdfunding",
        "label": "idsToCampaigns",
        "offset": 0,
        "slot": "1",
        "type": "t_mapping(t_uint256,t_struct(Campaign)1513_storage)"
      },
      {
        "astId": 1533,
        "contract": "contracts/Crowdfunding.sol:Crowdfunding",
        "label": "idsToPledgedAmountByAddress",
        "offset": 0,
        "slot": "2",
        "type": "t_mapping(t_uint256,t_mapping(t_address,t_uint256))"
      }
    ],
    "types": {
      "t_address": {
        "encoding": "inplace",
        "label": "address",
        "numberOfBytes": "20"
      },
      "t_enum(CampaignStatus)1499": {
        "encoding": "inplace",
        "label": "enum Crowdfunding.CampaignStatus",
        "numberOfBytes": "1"
      },
      "t_mapping(t_address,t_uint256)": {
        "encoding": "mapping",
        "key": "t_address",
        "label": "mapping(address => uint256)",
        "numberOfBytes": "32",
        "value": "t_uint256"
      },
      "t_mapping(t_uint256,t_mapping(t_address,t_uint256))": {
        "encoding": "mapping",
        "key": "t_uint256",
        "label": "mapping(uint256 => mapping(address => uint256))",
        "numberOfBytes": "32",
        "value": "t_mapping(t_address,t_uint256)"
      },
      "t_mapping(t_uint256,t_struct(Campaign)1513_storage)": {
        "encoding": "mapping",
        "key": "t_uint256",
        "label": "mapping(uint256 => struct Crowdfunding.Campaign)",
        "numberOfBytes": "32",
        "value": "t_struct(Campaign)1513_storage"
      },
      "t_struct(Campaign)1513_storage": {
        "encoding": "inplace",
        "label": "struct Crowdfunding.Campaign",
        "members": [
          {
            "astId": 1501,
            "contract": "contracts/Crowdfunding.sol:Crowdfunding",
            "label": "creator",
            "offset": 0,
            "slot": "0",
            "type": "t_address"
          },
          {
            "astId": 1503,
            "contract": "contracts/Crowdfunding.sol:Crowdfunding",
            "label": "goalAmount",
            "offset": 0,
            "slot": "1",
            "type": "t_uint256"
          },
          {
            "astId": 1505,
            "contract": "contracts/Crowdfunding.sol:Crowdfunding",
            "label": "pledgedAmount",
            "offset": 0,
            "slot": "2",
            "type": "t_uint256"
          },
          {
            "astId": 1507,
            "contract": "contracts/Crowdfunding.sol:Crowdfunding",
            "label": "startDate",
            "offset": 0,
            "slot": "3",
            "type": "t_uint64"
          },
          {
            "astId": 1509,
            "contract": "contracts/Crowdfunding.sol:Crowdfunding",
            "label": "endDate",
            "offset": 8,
            "slot": "3",
            "type": "t_uint64"
          },
          {
            "astId": 1512,
            "contract": "contracts/Crowdfunding.sol:Crowdfunding",
            "label": "status",
            "offset": 16,
            "slot": "3",
            "type": "t_enum(CampaignStatus)1499"
          }
        ],
        "numberOfBytes": "128"
      },
      "t_struct(Counter)1364_storage": {
        "encoding": "inplace",
        "label": "struct Counters.Counter",
        "members": [
          {
            "astId": 1363,
            "contract": "contracts/Crowdfunding.sol:Crowdfunding",
            "label": "_value",
            "offset": 0,
            "slot": "0",
            "type": "t_uint256"
          }
        ],
        "numberOfBytes": "32"
      },
      "t_uint256": {
        "encoding": "inplace",
        "label": "uint256",
        "numberOfBytes": "32"
      },
      "t_uint64": {
        "encoding": "inplace",
        "label": "uint64",
        "numberOfBytes": "8"
      }
    }
  }
}